{
  "_format": "hh-sol-artifact-1",
  "contractName": "RougeBridge",
  "sourceName": "contracts/RougeBridge.sol",
  "abi": [
    {
      "inputs": [
        {
          "internalType": "address",
          "name": "_guardian",
          "type": "address"
        }
      ],
      "stateMutability": "nonpayable",
      "type": "constructor"
    },
    {
      "inputs": [],
      "name": "AlreadyProcessed",
      "type": "error"
    },
    {
      "inputs": [],
      "name": "EmptyPubkey",
      "type": "error"
    },
    {
      "inputs": [],
      "name": "EnforcedPause",
      "type": "error"
    },
    {
      "inputs": [],
      "name": "ExpectedPause",
      "type": "error"
    },
    {
      "inputs": [],
      "name": "InsufficientBalance",
      "type": "error"
    },
    {
      "inputs": [],
      "name": "InvalidRequest",
      "type": "error"
    },
    {
      "inputs": [],
      "name": "NotGuardian",
      "type": "error"
    },
    {
      "inputs": [
        {
          "internalType": "address",
          "name": "owner",
          "type": "address"
        }
      ],
      "name": "OwnableInvalidOwner",
      "type": "error"
    },
    {
      "inputs": [
        {
          "internalType": "address",
          "name": "account",
          "type": "address"
        }
      ],
      "name": "OwnableUnauthorizedAccount",
      "type": "error"
    },
    {
      "inputs": [],
      "name": "ReentrancyGuardReentrantCall",
      "type": "error"
    },
    {
      "inputs": [
        {
          "internalType": "address",
          "name": "token",
          "type": "address"
        }
      ],
      "name": "SafeERC20FailedOperation",
      "type": "error"
    },
    {
      "inputs": [],
      "name": "TimelockAlreadyHandled",
      "type": "error"
    },
    {
      "inputs": [],
      "name": "TimelockNotReady",
      "type": "error"
    },
    {
      "inputs": [],
      "name": "UnsupportedToken",
      "type": "error"
    },
    {
      "inputs": [],
      "name": "ZeroAmount",
      "type": "error"
    },
    {
      "anonymous": false,
      "inputs": [
        {
          "indexed": true,
          "internalType": "address",
          "name": "sender",
          "type": "address"
        },
        {
          "indexed": true,
          "internalType": "address",
          "name": "token",
          "type": "address"
        },
        {
          "indexed": false,
          "internalType": "uint256",
          "name": "amount",
          "type": "uint256"
        },
        {
          "indexed": false,
          "internalType": "string",
          "name": "rougechainPubkey",
          "type": "string"
        }
      ],
      "name": "BridgeDepositERC20",
      "type": "event"
    },
    {
      "anonymous": false,
      "inputs": [
        {
          "indexed": true,
          "internalType": "address",
          "name": "sender",
          "type": "address"
        },
        {
          "indexed": false,
          "internalType": "uint256",
          "name": "amount",
          "type": "uint256"
        },
        {
          "indexed": false,
          "internalType": "string",
          "name": "rougechainPubkey",
          "type": "string"
        }
      ],
      "name": "BridgeDepositETH",
      "type": "event"
    },
    {
      "anonymous": false,
      "inputs": [
        {
          "indexed": true,
          "internalType": "address",
          "name": "recipient",
          "type": "address"
        },
        {
          "indexed": true,
          "internalType": "address",
          "name": "token",
          "type": "address"
        },
        {
          "indexed": false,
          "internalType": "uint256",
          "name": "amount",
          "type": "uint256"
        },
        {
          "indexed": false,
          "internalType": "bytes32",
          "name": "l1TxId",
          "type": "bytes32"
        }
      ],
      "name": "BridgeReleaseERC20",
      "type": "event"
    },
    {
      "anonymous": false,
      "inputs": [
        {
          "indexed": true,
          "internalType": "address",
          "name": "recipient",
          "type": "address"
        },
        {
          "indexed": false,
          "internalType": "uint256",
          "name": "amount",
          "type": "uint256"
        },
        {
          "indexed": false,
          "internalType": "bytes32",
          "name": "l1TxId",
          "type": "bytes32"
        }
      ],
      "name": "BridgeReleaseETH",
      "type": "event"
    },
    {
      "anonymous": false,
      "inputs": [
        {
          "indexed": true,
          "internalType": "address",
          "name": "oldGuardian",
          "type": "address"
        },
        {
          "indexed": true,
          "internalType": "address",
          "name": "newGuardian",
          "type": "address"
        }
      ],
      "name": "GuardianUpdated",
      "type": "event"
    },
    {
      "anonymous": false,
      "inputs": [
        {
          "indexed": true,
          "internalType": "address",
          "name": "previousOwner",
          "type": "address"
        },
        {
          "indexed": true,
          "internalType": "address",
          "name": "newOwner",
          "type": "address"
        }
      ],
      "name": "OwnershipTransferred",
      "type": "event"
    },
    {
      "anonymous": false,
      "inputs": [
        {
          "indexed": false,
          "internalType": "address",
          "name": "account",
          "type": "address"
        }
      ],
      "name": "Paused",
      "type": "event"
    },
    {
      "anonymous": false,
      "inputs": [
        {
          "indexed": false,
          "internalType": "uint256",
          "name": "oldThreshold",
          "type": "uint256"
        },
        {
          "indexed": false,
          "internalType": "uint256",
          "name": "newThreshold",
          "type": "uint256"
        }
      ],
      "name": "ThresholdUpdated",
      "type": "event"
    },
    {
      "anonymous": false,
      "inputs": [
        {
          "indexed": true,
          "internalType": "uint256",
          "name": "requestId",
          "type": "uint256"
        }
      ],
      "name": "TimelockCancelled",
      "type": "event"
    },
    {
      "anonymous": false,
      "inputs": [
        {
          "indexed": true,
          "internalType": "uint256",
          "name": "requestId",
          "type": "uint256"
        }
      ],
      "name": "TimelockExecuted",
      "type": "event"
    },
    {
      "anonymous": false,
      "inputs": [
        {
          "indexed": true,
          "internalType": "uint256",
          "name": "requestId",
          "type": "uint256"
        },
        {
          "indexed": false,
          "internalType": "uint256",
          "name": "executeAfter",
          "type": "uint256"
        }
      ],
      "name": "TimelockQueued",
      "type": "event"
    },
    {
      "anonymous": false,
      "inputs": [
        {
          "indexed": true,
          "internalType": "address",
          "name": "token",
          "type": "address"
        },
        {
          "indexed": false,
          "internalType": "bool",
          "name": "supported",
          "type": "bool"
        }
      ],
      "name": "TokenSupported",
      "type": "event"
    },
    {
      "anonymous": false,
      "inputs": [
        {
          "indexed": false,
          "internalType": "address",
          "name": "account",
          "type": "address"
        }
      ],
      "name": "Unpaused",
      "type": "event"
    },
    {
      "inputs": [
        {
          "internalType": "uint256",
          "name": "requestId",
          "type": "uint256"
        }
      ],
      "name": "cancelTimelock",
      "outputs": [],
      "stateMutability": "nonpayable",
      "type": "function"
    },
    {
      "inputs": [
        {
          "internalType": "address",
          "name": "token",
          "type": "address"
        },
        {
          "internalType": "uint256",
          "name": "amount",
          "type": "uint256"
        },
        {
          "internalType": "string",
          "name": "rougechainPubkey",
          "type": "string"
        }
      ],
      "name": "depositERC20",
      "outputs": [],
      "stateMutability": "nonpayable",
      "type": "function"
    },
    {
      "inputs": [
        {
          "internalType": "string",
          "name": "rougechainPubkey",
          "type": "string"
        }
      ],
      "name": "depositETH",
      "outputs": [],
      "stateMutability": "payable",
      "type": "function"
    },
    {
      "inputs": [
        {
          "internalType": "address",
          "name": "token",
          "type": "address"
        }
      ],
      "name": "emergencyWithdrawERC20",
      "outputs": [],
      "stateMutability": "nonpayable",
      "type": "function"
    },
    {
      "inputs": [],
      "name": "emergencyWithdrawETH",
      "outputs": [],
      "stateMutability": "nonpayable",
      "type": "function"
    },
    {
      "inputs": [
        {
          "internalType": "uint256",
          "name": "requestId",
          "type": "uint256"
        }
      ],
      "name": "executeTimelock",
      "outputs": [],
      "stateMutability": "nonpayable",
      "type": "function"
    },
    {
      "inputs": [],
      "name": "getTimelockQueueLength",
      "outputs": [
        {
          "internalType": "uint256",
          "name": "",
          "type": "uint256"
        }
      ],
      "stateMutability": "view",
      "type": "function"
    },
    {
      "inputs": [],
      "name": "guardian",
      "outputs": [
        {
          "internalType": "address",
          "name": "",
          "type": "address"
        }
      ],
      "stateMutability": "view",
      "type": "function"
    },
    {
      "inputs": [],
      "name": "largeWithdrawalThreshold",
      "outputs": [
        {
          "internalType": "uint256",
          "name": "",
          "type": "uint256"
        }
      ],
      "stateMutability": "view",
      "type": "function"
    },
    {
      "inputs": [],
      "name": "owner",
      "outputs": [
        {
          "internalType": "address",
          "name": "",
          "type": "address"
        }
      ],
      "stateMutability": "view",
      "type": "function"
    },
    {
      "inputs": [],
      "name": "pause",
      "outputs": [],
      "stateMutability": "nonpayable",
      "type": "function"
    },
    {
      "inputs": [],
      "name": "paused",
      "outputs": [
        {
          "internalType": "bool",
          "name": "",
          "type": "bool"
        }
      ],
      "stateMutability": "view",
      "type": "function"
    },
    {
      "inputs": [
        {
          "internalType": "bytes32",
          "name": "",
          "type": "bytes32"
        }
      ],
      "name": "processedL1Txs",
      "outputs": [
        {
          "internalType": "bool",
          "name": "",
          "type": "bool"
        }
      ],
      "stateMutability": "view",
      "type": "function"
    },
    {
      "inputs": [
        {
          "internalType": "address",
          "name": "token",
          "type": "address"
        },
        {
          "internalType": "address",
          "name": "to",
          "type": "address"
        },
        {
          "internalType": "uint256",
          "name": "amount",
          "type": "uint256"
        },
        {
          "internalType": "bytes32",
          "name": "l1TxId",
          "type": "bytes32"
        }
      ],
      "name": "releaseERC20",
      "outputs": [],
      "stateMutability": "nonpayable",
      "type": "function"
    },
    {
      "inputs": [
        {
          "internalType": "address",
          "name": "to",
          "type": "address"
        },
        {
          "internalType": "uint256",
          "name": "amount",
          "type": "uint256"
        },
        {
          "internalType": "bytes32",
          "name": "l1TxId",
          "type": "bytes32"
        }
      ],
      "name": "releaseETH",
      "outputs": [],
      "stateMutability": "nonpayable",
      "type": "function"
    },
    {
      "inputs": [],
      "name": "renounceOwnership",
      "outputs": [],
      "stateMutability": "nonpayable",
      "type": "function"
    },
    {
      "inputs": [
        {
          "internalType": "address",
          "name": "newGuardian",
          "type": "address"
        }
      ],
      "name": "setGuardian",
      "outputs": [],
      "stateMutability": "nonpayable",
      "type": "function"
    },
    {
      "inputs": [
        {
          "internalType": "uint256",
          "name": "newThreshold",
          "type": "uint256"
        }
      ],
      "name": "setLargeWithdrawalThreshold",
      "outputs": [],
      "stateMutability": "nonpayable",
      "type": "function"
    },
    {
      "inputs": [
        {
          "internalType": "address",
          "name": "token",
          "type": "address"
        },
        {
          "internalType": "bool",
          "name": "supported",
          "type": "bool"
        }
      ],
      "name": "setSupportedToken",
      "outputs": [],
      "stateMutability": "nonpayable",
      "type": "function"
    },
    {
      "inputs": [
        {
          "internalType": "uint256",
          "name": "newDuration",
          "type": "uint256"
        }
      ],
      "name": "setTimelockDuration",
      "outputs": [],
      "stateMutability": "nonpayable",
      "type": "function"
    },
    {
      "inputs": [
        {
          "internalType": "address",
          "name": "",
          "type": "address"
        }
      ],
      "name": "supportedTokens",
      "outputs": [
        {
          "internalType": "bool",
          "name": "",
          "type": "bool"
        }
      ],
      "stateMutability": "view",
      "type": "function"
    },
    {
      "inputs": [],
      "name": "timelockDuration",
      "outputs": [
        {
          "internalType": "uint256",
          "name": "",
          "type": "uint256"
        }
      ],
      "stateMutability": "view",
      "type": "function"
    },
    {
      "inputs": [
        {
          "internalType": "uint256",
          "name": "",
          "type": "uint256"
        }
      ],
      "name": "timelockQueue",
      "outputs": [
        {
          "internalType": "address",
          "name": "token",
          "type": "address"
        },
        {
          "internalType": "address",
          "name": "to",
          "type": "address"
        },
        {
          "internalType": "uint256",
          "name": "amount",
          "type": "uint256"
        },
        {
          "internalType": "bytes32",
          "name": "l1TxId",
          "type": "bytes32"
        },
        {
          "internalType": "uint256",
          "name": "executeAfter",
          "type": "uint256"
        },
        {
          "internalType": "bool",
          "name": "executed",
          "type": "bool"
        },
        {
          "internalType": "bool",
          "name": "cancelled",
          "type": "bool"
        }
      ],
      "stateMutability": "view",
      "type": "function"
    },
    {
      "inputs": [
        {
          "internalType": "address",
          "name": "newOwner",
          "type": "address"
        }
      ],
      "name": "transferOwnership",
      "outputs": [],
      "stateMutability": "nonpayable",
      "type": "function"
    },
    {
      "inputs": [],
      "name": "unpause",
      "outputs": [],
      "stateMutability": "nonpayable",
      "type": "function"
    },
    {
      "stateMutability": "payable",
      "type": "receive"
    }
  ],
  "bytecode": "0x6080604052670de0b6b3a7640000600255620151806003553480156200002457600080fd5b5060405162002b3738038062002b3783398181016040528101906200004a9190620002a6565b33600073ffffffffffffffffffffffffffffffffffffffff168173ffffffffffffffffffffffffffffffffffffffff1603620000c05760006040517f1e4fbdf7000000000000000000000000000000000000000000000000000000008152600401620000b79190620002e9565b60405180910390fd5b620000d1816200014360201b60201c565b506001620000f4620000e86200020760201b60201c565b6200023260201b60201c565b6000018190555080600160006101000a81548173ffffffffffffffffffffffffffffffffffffffff021916908373ffffffffffffffffffffffffffffffffffffffff1602179055505062000306565b60008060009054906101000a900473ffffffffffffffffffffffffffffffffffffffff169050816000806101000a81548173ffffffffffffffffffffffffffffffffffffffff021916908373ffffffffffffffffffffffffffffffffffffffff1602179055508173ffffffffffffffffffffffffffffffffffffffff168173ffffffffffffffffffffffffffffffffffffffff167f8be0079c531659141344cd1fd0a4f28419497f9722a3daafe3b4186f6b6457e060405160405180910390a35050565b60007f9b779b17422d0df92223018b32b4d1fa46e071723d6817e2486d003becc55f0060001b905090565b6000819050919050565b600080fd5b600073ffffffffffffffffffffffffffffffffffffffff82169050919050565b60006200026e8262000241565b9050919050565b620002808162000261565b81146200028c57600080fd5b50565b600081519050620002a08162000275565b92915050565b600060208284031215620002bf57620002be6200023c565b5b6000620002cf848285016200028f565b91505092915050565b620002e38162000261565b82525050565b6000602082019050620003006000830184620002d8565b92915050565b61282180620003166000396000f3fe60806040526004361061016a5760003560e01c8063715018a6116100d15780639aa7a4161161008a578063e5fca41011610064578063e5fca410146104b0578063e7986466146104f3578063f2fde38b1461051c578063f64d421f1461054557610171565b80639aa7a416146104405780639b1c48e6146104695780639e918cbb1461048557610171565b8063715018a61461037e578063785f18451461039557806384536017146103be5780638456cb59146103d55780638a0dac4a146103ec5780638da5cb5b1461041557610171565b8063452a932011610123578063452a93201461025c578063495257c9146102875780635a67cb87146102b05780635c975abb146102d957806368c4ac261461030457806368dee6b61461034157610171565b8063113fa85014610176578063150fea091461019f578063265105fa146101c85780632bbca157146101f15780633f4ba83a1461021c57806340c442de1461023357610171565b3661017157005b600080fd5b34801561018257600080fd5b5061019d600480360381019061019891906120e0565b610570565b005b3480156101ab57600080fd5b506101c660048036038101906101c191906120e0565b6105bd565b005b3480156101d457600080fd5b506101ef60048036038101906101ea91906121a1565b6105cf565b005b3480156101fd57600080fd5b50610206610849565b6040516102139190612217565b60405180910390f35b34801561022857600080fd5b5061023161084f565b005b34801561023f57600080fd5b5061025a60048036038101906102559190612232565b610861565b005b34801561026857600080fd5b5061027161091d565b60405161027e919061226e565b60405180910390f35b34801561029357600080fd5b506102ae60048036038101906102a99190612289565b610943565b005b3480156102bc57600080fd5b506102d760048036038101906102d29190612341565b610bdf565b005b3480156102e557600080fd5b506102ee610d8d565b6040516102fb91906123d0565b60405180910390f35b34801561031057600080fd5b5061032b60048036038101906103269190612232565b610da3565b60405161033891906123d0565b60405180910390f35b34801561034d57600080fd5b50610368600480360381019061036391906123eb565b610dc3565b60405161037591906123d0565b60405180910390f35b34801561038a57600080fd5b50610393610de3565b005b3480156103a157600080fd5b506103bc60048036038101906103b791906120e0565b610df7565b005b3480156103ca57600080fd5b506103d3611284565b005b3480156103e157600080fd5b506103ea611348565b005b3480156103f857600080fd5b50610413600480360381019061040e9190612232565b61141a565b005b34801561042157600080fd5b5061042a6114e2565b604051610437919061226e565b60405180910390f35b34801561044c57600080fd5b50610467600480360381019061046291906120e0565b61150b565b005b610483600480360381019061047e9190612418565b6116e7565b005b34801561049157600080fd5b5061049a6117cc565b6040516104a79190612217565b60405180910390f35b3480156104bc57600080fd5b506104d760048036038101906104d291906120e0565b6117d9565b6040516104ea9796959493929190612474565b60405180910390f35b3480156104ff57600080fd5b5061051a6004803603810190610515919061250f565b611885565b005b34801561052857600080fd5b50610543600480360381019061053e9190612232565b611936565b005b34801561055157600080fd5b5061055a6119bc565b6040516105679190612217565b60405180910390f35b6105786119c2565b7fb06a54caabe58475c86c2bf9df3f2f06dd1213e9e10659c293117fe4893b274b600254826040516105ab92919061254f565b60405180910390a18060028190555050565b6105c56119c2565b8060038190555050565b6105d76119c2565b6105df611a49565b6105e7611a6c565b60008203610621576040517f1f2a200500000000000000000000000000000000000000000000000000000000815260040160405180910390fd5b600073ffffffffffffffffffffffffffffffffffffffff168373ffffffffffffffffffffffffffffffffffffffff1603610687576040517f41abc80100000000000000000000000000000000000000000000000000000000815260040160405180910390fd5b6004600082815260200190815260200160002060009054906101000a900460ff16156106df576040517f57eee76600000000000000000000000000000000000000000000000000000000815260040160405180910390fd5b600660008573ffffffffffffffffffffffffffffffffffffffff1673ffffffffffffffffffffffffffffffffffffffff16815260200190815260200160002060009054906101000a900460ff16610762576040517f6a17288200000000000000000000000000000000000000000000000000000000815260040160405180910390fd5b60016004600083815260200190815260200160002060006101000a81548160ff02191690831515021790555060025482106107a8576107a384848484611aad565b61083b565b6107d383838673ffffffffffffffffffffffffffffffffffffffff16611c939092919063ffffffff16565b8373ffffffffffffffffffffffffffffffffffffffff168373ffffffffffffffffffffffffffffffffffffffff167f4131db420291b34fea891e4c6b5cdf224c27982fae69fbddfba9b7d5ee7398a18484604051610832929190612578565b60405180910390a35b610843611ce6565b50505050565b60035481565b6108576119c2565b61085f611d01565b565b6108696119c2565b60008173ffffffffffffffffffffffffffffffffffffffff166370a08231306040518263ffffffff1660e01b81526004016108a4919061226e565b602060405180830381865afa1580156108c1573d6000803e3d6000fd5b505050506040513d601f19601f820116820180604052508101906108e591906125b6565b90506109196108f26114e2565b828473ffffffffffffffffffffffffffffffffffffffff16611c939092919063ffffffff16565b5050565b600160009054906101000a900473ffffffffffffffffffffffffffffffffffffffff1681565b61094b6119c2565b610953611a49565b61095b611a6c565b60008203610995576040517f1f2a200500000000000000000000000000000000000000000000000000000000815260040160405180910390fd5b600073ffffffffffffffffffffffffffffffffffffffff168373ffffffffffffffffffffffffffffffffffffffff16036109fb576040517f41abc80100000000000000000000000000000000000000000000000000000000815260040160405180910390fd5b6004600082815260200190815260200160002060009054906101000a900460ff1615610a53576040517f57eee76600000000000000000000000000000000000000000000000000000000815260040160405180910390fd5b60016004600083815260200190815260200160002060006101000a81548160ff0219169083151502179055506002548210610a9a57610a956000848484611aad565b610bd2565b81471015610ad4576040517ff4d678b800000000000000000000000000000000000000000000000000000000815260040160405180910390fd5b60008373ffffffffffffffffffffffffffffffffffffffff1683604051610afa90612614565b60006040518083038185875af1925050503d8060008114610b37576040519150601f19603f3d011682016040523d82523d6000602084013e610b3c565b606091505b5050905080610b80576040517f08c379a0000000000000000000000000000000000000000000000000000000008152600401610b7790612686565b60405180910390fd5b8373ffffffffffffffffffffffffffffffffffffffff167f6e92b6f202ac06fbce19b0d07299219ca32be691ccee41bc0cfe5d9ab51b524f8484604051610bc8929190612578565b60405180910390a2505b610bda611ce6565b505050565b610be7611a49565b610bef611a6c565b60008303610c29576040517f1f2a200500000000000000000000000000000000000000000000000000000000815260040160405180910390fd5b60008282905003610c66576040517f4f2d527100000000000000000000000000000000000000000000000000000000815260040160405180910390fd5b600660008573ffffffffffffffffffffffffffffffffffffffff1673ffffffffffffffffffffffffffffffffffffffff16815260200190815260200160002060009054906101000a900460ff16610ce9576040517f6a17288200000000000000000000000000000000000000000000000000000000815260040160405180910390fd5b610d163330858773ffffffffffffffffffffffffffffffffffffffff16611d63909392919063ffffffff16565b8373ffffffffffffffffffffffffffffffffffffffff163373ffffffffffffffffffffffffffffffffffffffff167f6b085bc41ba2809bc21cb6f39fa5a20d245548e5c9a36bc43f7c1b9ad1843978858585604051610d77939291906126f3565b60405180910390a3610d87611ce6565b50505050565b60008060149054906101000a900460ff16905090565b60066020528060005260406000206000915054906101000a900460ff1681565b60046020528060005260406000206000915054906101000a900460ff1681565b610deb6119c2565b610df56000611db8565b565b610dff6119c2565b610e07611a49565b610e0f611a6c565b6005805490508110610e4d576040517f41abc80100000000000000000000000000000000000000000000000000000000815260040160405180910390fd5b600060058281548110610e6357610e62612725565b5b906000526020600020906006020190508060050160009054906101000a900460ff1680610e9e57508060050160019054906101000a900460ff165b15610ed5576040517f6e965fb300000000000000000000000000000000000000000000000000000000815260040160405180910390fd5b8060040154421015610f13576040517f7378c19d00000000000000000000000000000000000000000000000000000000815260040160405180910390fd5b60018160050160006101000a81548160ff021916908315150217905550600073ffffffffffffffffffffffffffffffffffffffff168160000160009054906101000a900473ffffffffffffffffffffffffffffffffffffffff1673ffffffffffffffffffffffffffffffffffffffff160361111c578060020154471015610fc6576040517ff4d678b800000000000000000000000000000000000000000000000000000000815260040160405180910390fd5b60008160010160009054906101000a900473ffffffffffffffffffffffffffffffffffffffff1673ffffffffffffffffffffffffffffffffffffffff16826002015460405161101490612614565b60006040518083038185875af1925050503d8060008114611051576040519150601f19603f3d011682016040523d82523d6000602084013e611056565b606091505b505090508061109a576040517f08c379a000000000000000000000000000000000000000000000000000000000815260040161109190612686565b60405180910390fd5b8160010160009054906101000a900473ffffffffffffffffffffffffffffffffffffffff1673ffffffffffffffffffffffffffffffffffffffff167f6e92b6f202ac06fbce19b0d07299219ca32be691ccee41bc0cfe5d9ab51b524f8360020154846003015460405161110e929190612578565b60405180910390a25061124b565b6111938160010160009054906101000a900473ffffffffffffffffffffffffffffffffffffffff1682600201548360000160009054906101000a900473ffffffffffffffffffffffffffffffffffffffff1673ffffffffffffffffffffffffffffffffffffffff16611c939092919063ffffffff16565b8060000160009054906101000a900473ffffffffffffffffffffffffffffffffffffffff1673ffffffffffffffffffffffffffffffffffffffff168160010160009054906101000a900473ffffffffffffffffffffffffffffffffffffffff1673ffffffffffffffffffffffffffffffffffffffff167f4131db420291b34fea891e4c6b5cdf224c27982fae69fbddfba9b7d5ee7398a183600201548460030154604051611242929190612578565b60405180910390a35b817fea04ffa82aa57b7937fa7fd295d8adaf45ec23d1bafdfafc3878cba7a4a29f7560405160405180910390a250611281611ce6565b50565b61128c6119c2565b6000479050600061129b6114e2565b73ffffffffffffffffffffffffffffffffffffffff16826040516112be90612614565b60006040518083038185875af1925050503d80600081146112fb576040519150601f19603f3d011682016040523d82523d6000602084013e611300565b606091505b5050905080611344576040517f08c379a000000000000000000000000000000000000000000000000000000000815260040161133b90612686565b60405180910390fd5b5050565b600160009054906101000a900473ffffffffffffffffffffffffffffffffffffffff1673ffffffffffffffffffffffffffffffffffffffff163373ffffffffffffffffffffffffffffffffffffffff16141580156113d957506113a96114e2565b73ffffffffffffffffffffffffffffffffffffffff163373ffffffffffffffffffffffffffffffffffffffff1614155b15611410576040517fef6d0f0200000000000000000000000000000000000000000000000000000000815260040160405180910390fd5b611418611e7c565b565b6114226119c2565b8073ffffffffffffffffffffffffffffffffffffffff16600160009054906101000a900473ffffffffffffffffffffffffffffffffffffffff1673ffffffffffffffffffffffffffffffffffffffff167f064d28d3d3071c5cbc271a261c10c2f0f0d9e319390397101aa0eb23c6bad90960405160405180910390a380600160006101000a81548173ffffffffffffffffffffffffffffffffffffffff021916908373ffffffffffffffffffffffffffffffffffffffff16021790555050565b60008060009054906101000a900473ffffffffffffffffffffffffffffffffffffffff16905090565b600160009054906101000a900473ffffffffffffffffffffffffffffffffffffffff1673ffffffffffffffffffffffffffffffffffffffff163373ffffffffffffffffffffffffffffffffffffffff161415801561159c575061156c6114e2565b73ffffffffffffffffffffffffffffffffffffffff163373ffffffffffffffffffffffffffffffffffffffff1614155b156115d3576040517fef6d0f0200000000000000000000000000000000000000000000000000000000815260040160405180910390fd5b6005805490508110611611576040517f41abc80100000000000000000000000000000000000000000000000000000000815260040160405180910390fd5b60006005828154811061162757611626612725565b5b906000526020600020906006020190508060050160009054906101000a900460ff168061166257508060050160019054906101000a900460ff165b15611699576040517f6e965fb300000000000000000000000000000000000000000000000000000000815260040160405180910390fd5b60018160050160016101000a81548160ff021916908315150217905550817fb991ddf193703ac2f5043ccb6fe236502533f6e03af3edf0e4afb2f3b5d94f3960405160405180910390a25050565b6116ef611a49565b6116f7611a6c565b60003403611731576040517f1f2a200500000000000000000000000000000000000000000000000000000000815260040160405180910390fd5b6000828290500361176e576040517f4f2d527100000000000000000000000000000000000000000000000000000000815260040160405180910390fd5b3373ffffffffffffffffffffffffffffffffffffffff167f199f9b881bb41ea6533e9f7b2d26fe723dd14dc9a27d0e9499a247a6b863390b3484846040516117b8939291906126f3565b60405180910390a26117c8611ce6565b5050565b6000600580549050905090565b600581815481106117e957600080fd5b90600052602060002090600602016000915090508060000160009054906101000a900473ffffffffffffffffffffffffffffffffffffffff16908060010160009054906101000a900473ffffffffffffffffffffffffffffffffffffffff16908060020154908060030154908060040154908060050160009054906101000a900460ff16908060050160019054906101000a900460ff16905087565b61188d6119c2565b80600660008473ffffffffffffffffffffffffffffffffffffffff1673ffffffffffffffffffffffffffffffffffffffff16815260200190815260200160002060006101000a81548160ff0219169083151502179055508173ffffffffffffffffffffffffffffffffffffffff167fd86c88b4a367d9b81a6e00c9d3f7d01657bffef358fa8968c91c045ae99f0d528260405161192a91906123d0565b60405180910390a25050565b61193e6119c2565b600073ffffffffffffffffffffffffffffffffffffffff168173ffffffffffffffffffffffffffffffffffffffff16036119b05760006040517f1e4fbdf70000000000000000000000000000000000000000000000000000000081526004016119a7919061226e565b60405180910390fd5b6119b981611db8565b50565b60025481565b6119ca611edf565b73ffffffffffffffffffffffffffffffffffffffff166119e86114e2565b73ffffffffffffffffffffffffffffffffffffffff1614611a4757611a0b611edf565b6040517f118cdaa7000000000000000000000000000000000000000000000000000000008152600401611a3e919061226e565b60405180910390fd5b565b611a51611ee7565b6002611a63611a5e611f28565b611f53565b60000181905550565b611a74610d8d565b15611aab576040517fd93c066500000000000000000000000000000000000000000000000000000000815260040160405180910390fd5b565b600060035442611abd9190612783565b905060056040518060e001604052808773ffffffffffffffffffffffffffffffffffffffff1681526020018673ffffffffffffffffffffffffffffffffffffffff16815260200185815260200184815260200183815260200160001515815260200160001515815250908060018154018082558091505060019003906000526020600020906006020160009091909190915060008201518160000160006101000a81548173ffffffffffffffffffffffffffffffffffffffff021916908373ffffffffffffffffffffffffffffffffffffffff16021790555060208201518160010160006101000a81548173ffffffffffffffffffffffffffffffffffffffff021916908373ffffffffffffffffffffffffffffffffffffffff16021790555060408201518160020155606082015181600301556080820151816004015560a08201518160050160006101000a81548160ff02191690831515021790555060c08201518160050160016101000a81548160ff021916908315150217905550505060006001600580549050611c5191906127b7565b9050807fd1c1123f3a160eb4f574203295425490e1f0ad28bae4d75eb17bd688733f97cb83604051611c839190612217565b60405180910390a2505050505050565b611ca08383836001611f5d565b611ce157826040517f5274afe7000000000000000000000000000000000000000000000000000000008152600401611cd8919061226e565b60405180910390fd5b505050565b6001611cf8611cf3611f28565b611f53565b60000181905550565b611d09611fc7565b60008060146101000a81548160ff0219169083151502179055507f5db9ee0a495bf2e6ff9c91a7834c1ba4fdd244a5e8aa4e537bd38aeae4b073aa611d4c611edf565b604051611d59919061226e565b60405180910390a1565b611d71848484846001612007565b611db257836040517f5274afe7000000000000000000000000000000000000000000000000000000008152600401611da9919061226e565b60405180910390fd5b50505050565b60008060009054906101000a900473ffffffffffffffffffffffffffffffffffffffff169050816000806101000a81548173ffffffffffffffffffffffffffffffffffffffff021916908373ffffffffffffffffffffffffffffffffffffffff1602179055508173ffffffffffffffffffffffffffffffffffffffff168173ffffffffffffffffffffffffffffffffffffffff167f8be0079c531659141344cd1fd0a4f28419497f9722a3daafe3b4186f6b6457e060405160405180910390a35050565b611e84611a6c565b6001600060146101000a81548160ff0219169083151502179055507f62e78cea01bee320cd4e420270b5ea74000d11b0c9f74754ebdbfc544b05a258611ec8611edf565b604051611ed5919061226e565b60405180910390a1565b600033905090565b611eef612082565b15611f26576040517f3ee5aeb500000000000000000000000000000000000000000000000000000000815260040160405180910390fd5b565b60007f9b779b17422d0df92223018b32b4d1fa46e071723d6817e2486d003becc55f0060001b905090565b6000819050919050565b60008063a9059cbb60e01b90506040518160005260001960601c8616600452846024526020600060446000808b5af192506001600051148316611fb9578383151615611fac573d6000823e3d81fd5b6000873b113d1516831692505b806040525050949350505050565b611fcf610d8d565b612005576040517f8dfc202b00000000000000000000000000000000000000000000000000000000815260040160405180910390fd5b565b6000806323b872dd60e01b90506040518160005260001960601c871660045260001960601c8616602452846044526020600060646000808c5af19250600160005114831661206e578383151615612061573d6000823e3d81fd5b6000883b113d1516831692505b806040526000606052505095945050505050565b60006002612096612091611f28565b611f53565b6000015414905090565b600080fd5b600080fd5b6000819050919050565b6120bd816120aa565b81146120c857600080fd5b50565b6000813590506120da816120b4565b92915050565b6000602082840312156120f6576120f56120a0565b5b6000612104848285016120cb565b91505092915050565b600073ffffffffffffffffffffffffffffffffffffffff82169050919050565b60006121388261210d565b9050919050565b6121488161212d565b811461215357600080fd5b50565b6000813590506121658161213f565b92915050565b6000819050919050565b61217e8161216b565b811461218957600080fd5b50565b60008135905061219b81612175565b92915050565b600080600080608085870312156121bb576121ba6120a0565b5b60006121c987828801612156565b94505060206121da87828801612156565b93505060406121eb878288016120cb565b92505060606121fc8782880161218c565b91505092959194509250565b612211816120aa565b82525050565b600060208201905061222c6000830184612208565b92915050565b600060208284031215612248576122476120a0565b5b600061225684828501612156565b91505092915050565b6122688161212d565b82525050565b6000602082019050612283600083018461225f565b92915050565b6000806000606084860312156122a2576122a16120a0565b5b60006122b086828701612156565b93505060206122c1868287016120cb565b92505060406122d28682870161218c565b9150509250925092565b600080fd5b600080fd5b600080fd5b60008083601f840112612301576123006122dc565b5b8235905067ffffffffffffffff81111561231e5761231d6122e1565b5b60208301915083600182028301111561233a576123396122e6565b5b9250929050565b6000806000806060858703121561235b5761235a6120a0565b5b600061236987828801612156565b945050602061237a878288016120cb565b935050604085013567ffffffffffffffff81111561239b5761239a6120a5565b5b6123a7878288016122eb565b925092505092959194509250565b60008115159050919050565b6123ca816123b5565b82525050565b60006020820190506123e560008301846123c1565b92915050565b600060208284031215612401576124006120a0565b5b600061240f8482850161218c565b91505092915050565b6000806020838503121561242f5761242e6120a0565b5b600083013567ffffffffffffffff81111561244d5761244c6120a5565b5b612459858286016122eb565b92509250509250929050565b61246e8161216b565b82525050565b600060e082019050612489600083018a61225f565b612496602083018961225f565b6124a36040830188612208565b6124b06060830187612465565b6124bd6080830186612208565b6124ca60a08301856123c1565b6124d760c08301846123c1565b98975050505050505050565b6124ec816123b5565b81146124f757600080fd5b50565b600081359050612509816124e3565b92915050565b60008060408385031215612526576125256120a0565b5b600061253485828601612156565b9250506020612545858286016124fa565b9150509250929050565b60006040820190506125646000830185612208565b6125716020830184612208565b9392505050565b600060408201905061258d6000830185612208565b61259a6020830184612465565b9392505050565b6000815190506125b0816120b4565b92915050565b6000602082840312156125cc576125cb6120a0565b5b60006125da848285016125a1565b91505092915050565b600081905092915050565b50565b60006125fe6000836125e3565b9150612609826125ee565b600082019050919050565b600061261f826125f1565b9150819050919050565b600082825260208201905092915050565b7f455448207472616e73666572206661696c656400000000000000000000000000600082015250565b6000612670601383612629565b915061267b8261263a565b602082019050919050565b6000602082019050818103600083015261269f81612663565b9050919050565b82818337600083830152505050565b6000601f19601f8301169050919050565b60006126d28385612629565b93506126df8385846126a6565b6126e8836126b5565b840190509392505050565b60006040820190506127086000830186612208565b818103602083015261271b8184866126c6565b9050949350505050565b7f4e487b7100000000000000000000000000000000000000000000000000000000600052603260045260246000fd5b7f4e487b7100000000000000000000000000000000000000000000000000000000600052601160045260246000fd5b600061278e826120aa565b9150612799836120aa565b92508282019050808211156127b1576127b0612754565b5b92915050565b60006127c2826120aa565b91506127cd836120aa565b92508282039050818111156127e5576127e4612754565b5b9291505056fea26469706673582212208302bdb85e57f391fe558c05bf0c2cfe54aa93b08eaac88a14b5f04bfacb7be664736f6c63430008140033",
  "linkReferences": {},
  "deployedLinkReferences": {}
}